:020000040000FA
:1000000020160010E1000000E9000000EB000000F5
:10001000ED000000EF000000F10000000000000013
:10002000000000000000000000000000F3000000DD
:10003000F5000000000000007B060000591E0000D3
:10004000FB000000411F0000FB000000FB0000005F
:10005000FB000000FB00000079200000A920000048
:10006000FB000000FB000000FB000000FB000000A4
:10007000FB000000FB000000FB000000FB00000094
:10008000FB000000FB000000FB000000FB00000084
:10009000FB000000FB000000FB000000FB00000074
:1000A000FB000000FB000000FB000000FB00000064
:1000B000FB000000FB000000FB000000FB00000054
:1000C000FB000000FB000000FB000000DFF80CD08C
:1000D00000F0A0FA00480047553400002016001038
:1000E0000648804706480047FEE7FEE7FEE7FEE7D2
:1000F000FEE7FEE7FEE7FEE7FEE7FEE77D1E000007
:10010000CD0000002DE9F05F0546002092469B4699
:1001100088460646814640241BE02846414647461D
:10012000224600F0EBF852465B46801A994110D304
:1001300010461946224600F0D2F82D1A67EB010846
:100140004F4622460120002100F0C9F817EB0009B4
:100150004E41201EA4F10104DFDC484631462A4608
:100160004346BDE8F09F2DE9FE4F074681EA0300B4
:10017000C00F0E46019021F0004123F00044B81A50
:10018000A14105D23846314617461E460B46024667
:1001900023F00040104304D13846314603B0BDE897
:1001A000F08F350DC5F30A00C3F30A510290401ACF
:1001B0000090402868DAC3F3130040F4801B0198D4
:1001C000924620B10023D2EB030A63EB0B0B00989D
:1001D0005946C0F14002504600F081F880460C4676
:1001E00050465946009A00F099F8C0197141EF172E
:1001F00085EA11533B4340D0019A52B3009A012A39
:1002000011DC0022801A4FF0004361EB055103EA34
:1002100005538018CDE9002341F58011424623465D
:1002200000F09BF8BAE72E050025401B61EB0601A4
:10023000401941F58012001852412818A6F5001304
:1002400043EB020140EAD470294318EB08086441EB
:1002500013E064084FEA38084FF0000244EAC07423
:100260004FEA0553801A61EB0301801841F58011B4
:1002700049084FEA3000801859414246234603B0EE
:10028000BDE8F04F00F05CB8019801224000002367
:10029000D0EB020263EBE07301984FEAE074381A86
:1002A00066EB0401EBE783F000435CE781F000417B
:1002B00059E730B50B46014600202022012409E011
:1002C00021FA02F59D4205D303FA02F5491B04FA0F
:1002D00002F52844151EA2F10102F1DC30BD202AEE
:1002E00004DB203A00FA02F1002070479140C2F18D
:1002F000200320FA03F3194390407047202A04DBBF
:10030000203A21FA02F00021704721FA02F3D0408E
:10031000C2F120029140084319467047202A06DBAB
:10032000CB17203A41FA02F043EAE071704741FAF4
:1003300002F3D040C2F120029140084319467047B1
:1003400010B5002B08DA401C41F1000192185B4106
:100350001A4301D120F0010010BD2DE9F04D924665
:100360009B4611B1B1FA81F202E0B0FA80F220327C
:100370009046FFF7B4FF06460F4640EA0A0041EAFE
:100380000B0152465B46084303D130463946BDE86F
:10039000F08D194652EA010015D0C8F140025046CE
:1003A000FFF7ACFF04460D46504659464246FFF75C
:1003B00096FF084301D0012000E00020044345EAF5
:1003C000E07526432F430A984FEAD625A0EB080094
:1003D0000A304FEA46534FF0000245EA47554FEACC
:1003E000D72402D500200146D1E70105501961410B
:1003F000DDE9084500196941BDE8F04DA0E72DE9A8
:10040000FE4F81EA030421F0004504F0004423F08C
:1004100000414FF0000A009450EA050302D052EA6E
:10042000010304D10020014603B0BDE8F08FC1F301
:100430000A53C5F30A541C44A0FB02B3C5F31305C9
:1004400045F4801CC1F3130141F480180CFB023306
:1004500000FB083EA4F2F334810A930A41EA8C516E
:1004600043EA88530194A1FB03474FEA9C2505FB0F
:1004700003734FEA982601FB06373D05260545EA3A
:100480001435BBEB06016EEB0503850E920E45EAB3
:100490008C1542EA8812A5FB0206261E67EB0007B0
:1004A0000C0D44EA0334A41947EB1350C1F31306AF
:1004B0004FF0000319464FEA033343EA165343EA69
:1004C0000403019CE5FB0201A4F10C040294009CCE
:1004D0004FEA0632CDE900A4FFF73FFFA4E72DE97C
:1004E000F04D81EA030404F0004B21F0004714466C
:1004F0004FF0000A23F0004150EA070220D054EAEE
:1005000001021DD0C1F30A550246C1F31300C7F31F
:100510000A56C7F3130340F4801143F48013A6EB8B
:100520000508101BD64608F2FD3873EB010002D314
:1005300008F1010801E092185B41B8F1000F03DAFD
:1005400000200146BDE8F08D00204FF480150646DE
:1005500007460EE0B2EB040C73EB010C04D3121B44
:10056000064363EB01032F436D084FEA30009218F6
:100570005B4150EA050CEDD152EA030012D082EA49
:10058000040083EA0105284303D100224FF0004311
:1005900008E0101B8B4102D20122002302E06FF021
:1005A000010253101AEB060047EB085110EB0A004A
:1005B00041EB0B01BDE8F04DFFF7C2BEC1F30A529B
:1005C000C1F3130140F2FF3341F480119A4202DA81
:1005D00000200146704740F233439A42A2F2334270
:1005E00002DC5242FFF78ABEFFF779BE30B5002920
:1005F00004DB4FF00044404264EB0101002B04DBBC
:100600004FF00044524264EB0303994208BF90420A
:1006100030BD0000064C074D06E0E06840F00103E5
:1006200094E8070098471034AC42F6D3FFF752FD28
:100630000437000034370000EFF3108072B67047C3
:1006400080F3108870471D484FF0FF0101700020B3
:1006500080F309881A48012101701A484FF080512F
:10066000016062B6FEE717484FF0805101607047A5
:1006700014484FF080510160704772B6EFF3098063
:1006800028B1203880E8F00F0F49096808600F484A
:100690000F490A7802700C480E490A680260106817
:1006A00090E8F00F203080F309884EF0040E62B617
:1006B00070474FF0010080F31088704722ED00E092
:1006C0005B00001004ED00E0740000105800001002
:1006D000590000107C00001010B504464078A17845
:1006E000884201D0012100E000212078814218D108
:1006F000C00716D00BA002F0AFFE2078C00710D0C4
:100700000EA002F0A9FE2078C0070AD00CA002F0CB
:10071000A3FE2078C00704D0BDE8104009A002F075
:100720009BBE10BD6D61696E20656C6563747269F6
:100730006369747920616C61726D000061616100B0
:10074000626262006363630001F098FB002000F0C6
:10075000B1FA394C2060012000F0ACFA6060012051
:1007600000F0A8FAA060012000F0A4FAE0600020E8
:1007700000F046FA2061002000F042FA606100209B
:1007800000F03EFAA061002000F094FAE06102F06F
:10079000E1FD02F003FE2E4C2C4D28A122682846D4
:1007A000904722682BA12846904701F049FA226819
:1007B0002BA12846904701F049FA22682BA1284630
:1007C000904702F03FFE22682BA12846904700F098
:1007D00079F822682BA12846904700F079F8226822
:1007E0002BA12846904722682BA12846904701F06C
:1007F000BFFA00F0F9F8012001F0FEFA10B129A0CB
:1008000002F02AFE022001F0F7FA10B126A002F051
:1008100023FE032001F0F0FA10B124A002F01CFE28
:10082000042001F0E9FA10B121A002F015FE2268BF
:1008300020A128469047DEE700000010496E697449
:1008400020686172647761726500000000C000403A
:10085000B80000105541525420494E495400000040
:1008600052544320494E4954000000005254432042
:1008700053544152540000004B455920494E4954AD
:10088000000000004245455020494E4954000000F8
:1008900052454C4159000000694E4954205253348E
:1008A0003835000031000000320000003300000045
:1008B000340000003F0000007047704770477047E9
:1008C0007047704701229106032000F07EB80000B7
:1008D00010B54FF08061032000F04EF8074A03A1E5
:1008E00005481268BDE810401047000042454550D9
:1008F000204F66660000000000C00040B8000010F5
:10090000084A094B012907D0002904D152F8C41F15
:10091000834319401160704752F8C41F18400143C7
:10092000F8E7000000C00F40DEF7EFEF094900B51F
:100930000A6800F011F830B1012807D0022805D06C
:10094000032803D101E0042000E00820B2FBF0F00E
:1009500000BD00004C0000100649202802D2D1F84A
:10096000A81102E0D1F8AC112038C14001F0030019
:100970007047000000C00F4010B50C4600F004F8AE
:10098000002800D0C46110BD01460020052905D211
:10099000DFE801F00305080B0E0007487047064822
:1009A000203070470448403070470348603070473B
:1009B000014880307047000000C0092010B5FFF7E3
:1009C000E3FF002800D0406910BD70B50C46154605
:1009D000FFF7DAFF002805D001680DB1214300E0E0
:1009E000A143016070BD000010B50122D1040020B8
:1009F000FFF7EBFF012211050020FFF7E6FF0122C0
:100A000051050020FFF7E1FF012291050020FFF7CB
:100A1000DCFF054A02A103481268BDE810401047F8
:100A20004F4B3F0000C00040B800001003494A6D22
:100A3000034B53F8200002434A65704700C0092069
:100A4000E43500007047000070B505000E461446FE
:100A500005D036B10E48807828B112200DE0042070
:100A60000BE00C2009E02878012808D0022806D0E5
:100A7000032804D0042802D00120107070BDFFF7B5
:100A8000DBFD6E61FFF7DCFD0020207070BD000013
:100A90005400001030B587B000F070F82A480024E8
:100AA00004638470C4700472C471C460C4618461DE
:100AB000446144708471214600F134025454491C4D
:100AC000C9B20829FAD3047144718462046200F047
:100AD000D3FE00F0A5FE00F06DFE00F00FFF00F069
:100AE00033FF02AA0325202031C218494FF6FF70B8
:100AF000CDE9000101F17C023F230021144800F000
:100B0000EDF905AA13A13F2000F0E8FA02AA40205F
:100B100031C214494FF6FE70CDE9000101F1FC022B
:100B20003E230021104800F0D9F905AA0FA13E206C
:100B300000F0D4FA00F08EFC00F026F807B0BDE813
:100B40003040FFF77FBF0000540000102004001069
:100B5000E91A000075432F4F532D49492049646C11
:100B600065000000200300101D1B000075432F4F7F
:100B7000532D49492053746174000000014900203D
:100B80000880704750000010704700000449C87981
:100B9000012804D18878FF2801D2401C8870704752
:100BA0005400001070B5144CE079012822D1FFF7F1
:100BB00043FD0546A07820B1401E10F0FF00A07054
:100BC00013D1E07888B900F003FF0C48617950F840
:100BD0002100A0622279914207D0C16B491CC163F8
:100BE000E068401CE060FFF743FD2846BDE8704028
:100BF000FFF726BD70BD000054000010A0040010D7
:100C000070B505460E48007808B1002070BDFFF7AA
:100C100013FD01460B4804680CB162680260084687
:100C2000FFF70EFD4CB1012020700020208106A0AE
:100C300065606061204600F0B3FD204670BD000095
:100C400056000010640000103F00000010B5094C71
:100C5000E07901280CD1FFF7EFFCA17821B9E17808
:100C6000FF2901D2491CE170BDE81040FFF7E8BC44
:100C700010BD00005400001010B50D4CE0790128A3
:100C800014D1FFF7D9FCE17831B1491E11F0FF0111
:100C9000E17001D1A17819B1BDE81040FFF7D0BCD7
:100CA000FFF7CEFCBDE8104000F06EBE10BD0000A6
:100CB0005400001070B505460E48007808B10020B9
:100CC00070BDFFF7B9FC01460B4804680CB16268BF
:100CD00002600846FFF7B4FC4CB103202070258168
:100CE0000020606005A06061204600F059FD2046AC
:100CF00070BD000056000010640000103F000000AE
:100D00002DE9F04706008946144604D030780328C0
:100D100003D001200AE0042008E02648007808B14A
:100D2000022003E02448007818B10D201070BDE8BF
:100D3000F087FFF781FC07463089002530B1401E5F
:100D400030813846FFF77CFC2570F0E7DFF86C80D7
:100D5000D8F8000010F8341F41F00101017045700F
:100D600040F8049C304600F0F1FC3846FFF768FC80
:100D700000F00AFEFFF760FC0746D8F8000090F884
:100D8000351031B1022906D0314600F0B5FC0A20F9
:100D900002E0257001E00E202070D8F8000000F17C
:100DA0001C0005764576056045603846BDE8F0478D
:100DB000FFF746BC560000105700001074000010EA
:100DC00070B5040004D02078032803D0012070BD42
:100DD000042070BDFFF730FC0546A07A58B100230F
:100DE00001221946204600F04BFC2846FFF728FC5C
:100DF00000F0CAFD09E020894FF6FF71884206D253
:100E0000401C20812846FFF71BFC002070BD2846AF
:100E1000FFF716FC332070BD10B5094CE0790028AF
:100E20000CD100F0D5FD60790649207151F8200001
:100E3000A0622062BDE81040FFF705BC10BD0000B5
:100E400054000010A0040010FFF736BD2DE9FE434A
:100E500005460F4690461C463F2B02D92A20BDE886
:100E6000FE83FFF7E9FB1A49097819B1FFF7E8FBA0
:100E70003C20F4E7174E56F8241019B1FFF7E0FBB9
:100E80002820ECE7012146F82410FFF7D9FB0023C6
:100E900042463946284600F09FF900250146009554
:100EA00001952B462A462046029500F0A1FD070039
:100EB00007D0FFF7C1FB46F82450FFF7C1FB3846C7
:100EC000CDE7054800780128F9D100F05DFDF6E78F
:100ED00056000010A00400105B0000102DE9FF4F29
:100EE00083B08246DDE91386DDE911978B461C4607
:100EF0003F2B03D92A2007B0BDE8F08FFFF79CFBFA
:100F00001C49097819B1FFF79BFB3C20F3E71A4D08
:100F100055F8241019B1FFF793FB2820EBE70121C6
:100F200045F82410FFF78CFB32463946484600F05E
:100F30003DFE334659465046059A00F04DF900975C
:100F4000CDE9018601464A462046109B00F050FD3F
:100F5000060008D0FFF770FB002145F82410FFF7CA
:100F60006FFB3046C7E7054800780128F9D100F04B
:100F70000BFDF6E756000010A00400105B00001007
:100F8000FFF79BBC2DE9F04706464748007810B1B3
:100F90004020BDE8F0873F2E04D005D3FF2E07D0B8
:100FA0002A20F6E73E20F4E7FFF746FB074606E077
:100FB000FFF742FB07463D48006890F83660DFF8CF
:100FC000F09059F826406CB1012C10D094F83810EC
:100FD000384A94F83930505CDB43DBB21840505447
:100FE0000AD010E03846FFF72BFB4320D1E7384604
:100FF000FFF726FB3D20CCE72F4994F83A000A780A
:1010000022EA00000870E16911B1204600F074FB8B
:10101000216A11B1204600F081FBA06A08B100F0FE
:10102000EFFB4FF00008C4F83080244D84F8348082
:1010300084F835802878FF2801D2401C2870384673
:10104000FFF7FEFA00F01AFBFFF7F6FA07462878DA
:1010500008B1401E2870204600F03CF8184801787E
:10106000491E017049F82680A169404691B1606926
:101070004861D4E905018161124801686161046039
:1010800011A020653846FFF7DBFA104800780128E8
:1010900006D007E0616988610D4960690860EBE787
:1010A00000F072FC002074E756000010740000107D
:1010B000A0040010880000105A0000105700001013
:1010C0005C000010780000103F0000005B00001082
:1010D00080000010FFF7F2BBFFF7F1BB70B50546CB
:1010E0000E4614463F2803D9FF2D01D02A2004E0E4
:1010F0002EB11248007820B11220107070BD0C2063
:10110000FBE7FFF799FA0146FF2D03D10C48006871
:1011100090F836500B4850F82500432540B101287F
:1011200006D006650846FFF78BFA0020207070BDD8
:101130000846FFF785FA257070BD000056000010C4
:1011400074000010A00400107047FFF7B9BB000046
:101150002DE9F04105460C463F2804D9FF2D02D069
:101160002A20BDE8F08144B1002020606060FFF7D4
:1011700063FA0146FF2D02D005E00920F1E714488B
:10118000006890F83650134850F8250058B10128EF
:1011900009D0028AD2070BD0D0E902760025084692
:1011A000FFF74EFA0AE00846FFF74AFA4320D8E76D
:1011B0000846FFF745FA4520D3E76D1C01CF00280C
:1011C000FBD0A8002060701B800060600020C8E792
:1011D00074000010A00400104FF080731360131F00
:1011E0001860164842F8080CA2F138004FF012338C
:1011F0004FF00332C0E90A234FF0023242624FF04F
:101200000132C0E907124FF0113181614FF0103106
:1012100041614FF0093101614FF00831C1604FF079
:10122000073181604FF0063141604FF0053140F8E1
:1012300004194FF00431016070470000051B0000E5
:1012400070B5274D04463F2804D005D3FF280CD0A5
:101250002A2070BD472070BDFFF7EEF903462868CD
:1012600090F83600A04206D007E0FFF7E5F9034604
:10127000286890F83640012500E00025194850F80C
:10128000240068B1012810D090F83820164C90F84E
:101290003960A15CF643F6B23140A1540AD010E0A7
:1012A0001846FFF7CDF9482070BD1846FFF7C8F97A
:1012B000432070BD0D4A90F83A10147824EA0101D9
:1012C000117010F8341F41F0080101701846FFF743
:1012D000B7F9012D01D100F057FB002070BD0000CF
:1012E00074000010A0040010880000105A000010C4
:1012F00070B5044614480078002824D113480078BB
:10130000002820D1002C1ED0FFF796F90346104884
:10131000104D016891F8380091F839602A5CF64365
:10132000F6B232402A5406D10B4A91F83A001578A9
:1013300025EA0000107018460C63FFF781F9BDE83C
:10134000704000F021BB70BD560000105700001027
:1013500074000010880000105A00001010B5FFF74C
:101360006BF903490C68FFF76BF9204610BD0000CC
:10137000840000102DE9F04100F052F8FFF75CF90D
:10138000264D296B491C2963FFF75AF9E879012892
:1013900041D1687A0126002720B101283BD00228DC
:1013A00002D06F72EC6A32E06E72FBE7FFF744F92D
:1013B000216B49B3491E216326D194F8341011F0F2
:1013C000370F06D001F0C80184F8341084F8356076
:1013D00001E084F8357094F83410090714D404F14E
:1013E0003804AA79A178DFF834C041EA0201A97172
:1013F00021780CF1340C63781CF80120A4F1380436
:1014000042EA03020CF801206469FFF719F994F825
:1014100036003F28CAD1BDE8F0810000540000101A
:1014200010B5FFF74EFA07480188491C89B20180C0
:10143000642905D300210180BDE8104000F004B804
:1014400010BD00005000001001480068FFF7B8BC54
:10145000A800001070B588B04FF420712E4800F03D
:1014600043FA40212D4800F03FFA00202A49044663
:101470006422431C00EB80001D4601EBC0009BB2C0
:1014800003EB8303027001EBC30380F82540C360C4
:1014900023A30362A8B20F28EBD300EB800001EB7B
:1014A000C000027080F825401DA2C46002621D4881
:1014B0001E4A04601C480480102010801C480160F3
:1014C0000120FFF7F7FB1B4D28600020FFF7F2FB20
:1014D000194E05AA19A130602868FFF7B5FA05AAC8
:1014E0001BA13068FFF7B0FA402102910320CDE93B
:1014F00003401C4A4FF6FD70CDE900023D23FC324B
:1015000000211948FFF7EAFC06AA18A13D20FFF7C1
:10151000E5FD08B070BD0000580E0010D811001095
:101520003F000000A00000109E0000109C00001072
:10153000AC000010A4000010A800001075432F4F4D
:10154000532D494920546D724C6F636B00000000AD
:1015500075432F4F532D494920546D725369676E5F
:10156000616C0000D8100010C515000075432F4FA6
:10157000532D494920546D7200000000032280F869
:1015800025200E4A0129126813D0816989B11144BE
:1015900041610B4A01F0070102EBC10100230A6817
:1015A000086042B1C26010618A88521C8A8003615F
:1015B0007047C169EBE70122C360F7E7A0000010A4
:1015C000D811001008B5DFF86880DFF868901A4D70
:1015D0006A460021D8F80000FFF792FBFFF736FBC0
:1015E0002868401C286000F00700022759F83040A6
:1015F00013E061692868E66881420DD1204600F059
:101600001DF894F8240002280CD084F82570626834
:1016100012B12046A16890473446002CE9D1FFF76B
:101620002BFBD5E701212046FFF7A8FFEFE70000DD
:10163000A8000010D8110010A000001010B54169DA
:101640000D4A01F0070102EBC10200231468C168D2
:10165000844203D1116029B10B6103E00469E160A8
:1016600001B10C61012180F82510C36003619088ED
:10167000401E908010BD0000D8110010704700007F
:10168000F0B50546807A194C4FF00007205C05EB59
:101690000006F67AA45D04EBC004E6B2144C54F8DC
:1016A000264004F12404E7602160217C21EA020144
:1016B00021746374A4F1240409070BD40D4994F830
:1016C0003A208B791A438A71343194F839300A5CA4
:1016D0001A430A542946204600F00EF8216A19B12F
:1016E000204600F01BF8E5613046F0BD04360000EE
:1016F000A00400105400001010B590F8382090F8A5
:1017000039408B18E443DA7AE4B22240DA7204D129
:101710008A7A90F83A0082438A7210BD70B510F848
:10172000383F44788278E443D243E4B2D5B20868C3
:1017300009E0C618F27A2240F27202D1827A2A4077
:10174000827251F8040F0028F3D170BD30B51349EF
:1017500000F10B020B6A43F81C0F1C7F5B7FA55C3A
:101760001D43A5540A6A837A02F13802947843EA49
:1017700004038372137801F134045578E05C6FEA56
:101780000505EDB22840A2F13802E05405D192F8E7
:101790003A008A7922EA0000887130BD54000010B6
:1017A0000022827211464318491CC9B2DA72082914
:1017B000F9D3704710B550210E4800F095F800207D
:1017C0000C4A0146431C1C4602EB00109BB202EB84
:1017D00003130170436008A3C360A0B20428F1D3CF
:1017E00002EB00100170416003A1C1600348026078
:1017F00010BD0000300D00103F00000090000010F0
:10180000D0E9001200232AB1116001B14A6080685A
:1018100083627047C26800295160F8D04B60F6E7D8
:1018200010B54FF4F071114800F05EF800200F4A37
:101830000146431C1C4600EB40009BB202EBC0007B
:1018400003EB430302EBC3030170436008A343614E
:10185000A0B21328EDD300EB400002EBC0000170F2
:10186000416003A141610348026110BD40010010C5
:101870003F0000005400001010B54FF4F26116480C
:1018800000F032F84FF48071144800F02DF812493E
:101890000020421C00EB400404EBC000D3B203EB79
:1018A000430401EBC00004EBC30301EBC30343613A
:1018B0000BA30365D0B21528EBD300EB400202EB7B
:1018C000C00001EBC00006A3002203654261054889
:1018D000C262416210BD0000A0050010A00400100B
:1018E0003F00000054000010002203E0491E00F8F1
:1018F000012B89B20029F9D17047000010B5782179
:101900000E48FFF7F1FF0D4A002000BF00EB400139
:1019100002EBC10101F118034B60401C08A380B227
:101920004B610428F2D300EB400002EBC000002121
:10193000416003A141610348026010BD800D0010A9
:101940003F0000009400001010B560210C48FFF724
:10195000CBFF0B4A0020411C8BB200EB400003EB95
:10196000430302EBC30342F8303088B20328F2D3BA
:1019700000EB4000002142F830100248026010BD28
:10198000F80D00109800001070B5FEF755FE0E4CD3
:101990000546A07898B9E07888B900F019F80B49A5
:1019A000607951F82010A1622279904207D0C86B6B
:1019B000401CC863E068401CE060FEF754FE284607
:1019C000BDE87040FEF73CBE54000010A0040010BB
:1019D0000649054A01F134038879105C1B5CD25C2E
:1019E00002EBC0004871704704360000540000103C
:1019F0002DE9F05F0746DDE90ABA0D4690469946A3
:101A0000FEF71AFE354E746A002C63D061691C34EF
:101A10007162FEF715FE44F81C5CA776002525765A
:101A20006576656144F810BC44E906A80C9824F872
:101A30000C0CFB0824F80A9CE57707F0070201204C
:101A4000237700FA03F1E276A17790406077256072
:101A50006560E560A5602562A562656220A0E5621B
:101A6000C4E90C50A4F11C044FEA050004EB80010A
:101A700000F101004D6510F0FF00F7D02046FFF7A0
:101A8000E3F92046FFF77CFAFEF7D6FD014615483C
:101A900040F82740F06AC4E9050500B18461F462AA
:101AA00004F13804B279A07840EA0200B0710B4822
:101AB000227800F134006478835C43EA04038354A1
:101AC000307A00F1010030720846FEF7B9FD0020BF
:101AD000BDE8F09FFEF7B4FD4220F9E75400001086
:101AE0003F000000A0040010054C00BFFEF7A4FD5D
:101AF000E169491CE161FEF7A3FDFFF7EDFAF5E7A7
:101B000054000010044810B50068FFF71DFBBDE845
:101B10001040FF20FFF736BA74000010144C02E0AA
:101B2000C820FFF7E5FB60780028F9D064216069E0
:101B30000025B0FBF1F0606118B92570FF20FFF7B8
:101B40007FFBFEF779FDE169C4E90615FEF778FD34
:101B5000D4E90510B0FBF1F0C0F164002070FFF78C
:101B6000F4FA00F007F86420FFF7C2FBE9E7000091
:101B7000540000107CB50C4D002469462046FFF748
:101B8000E7FA58B955F8240040B1012806D0D0E949
:101B9000021201EB820181640199C164641CE4B208
:101BA0003F2CEAD97CBD0000A0040010D30707D069
:101BB000920705D50022002902D004C0491EFAE789
:101BC00070470000F0B502784178857852001B4ECE
:101BD000102901D31039521C4900032356F8224022
:101BE00003FA01F7BC438D402C4346F822400278AB
:101BF000124E4178C57852004036102901D3103971
:101C0000521C490056F822408B409C438D402C4387
:101C100046F8224001784378047908480122683068
:101C2000012C50F8214002FA03F204D034EA0204F5
:101C300040F82140F0BD1443FAE7000000C0024024
:101C4000014800F041B800000040024010B5054CCA
:101C5000204600F065F82046BDE81040012100F064
:101C600003B800000040024070B504460B480D4622
:101C7000844203D072210AA001F06AFB2DB1012D2C
:101C800008D0732106A001F063FB207A00F0120057
:101C9000207270BD207A40F00100F9E70040024058
:101CA0002E2E5C4E58504C69627261726965735C8D
:101CB000736F757263655C6C7063313778785F72CF
:101CC00074632E630000000010B504460948844286
:101CD00003D03E2108A001F03BFB01214802FEF7A2
:101CE0000FFE0020207020722073FF2121742064D9
:101CF00010BD0000004002402E2E5C4E58504C6932
:101D0000627261726965735C736F757263655C6C36
:101D10007063313778785F7274632E63000000005F
:101D200010B504460748844203D0622106A001F0A2
:101D30000FFB207A40F002002072207A00F01100A0
:101D4000207210BD004002402E2E5C4E58504C694F
:101D5000627261726965735C736F757263655C6CE6
:101D60007063313778785F7274632E63000000000F
:101D700010B586B001208DF8020000208DF8030018
:101D80000A218DF801108DF804008DF800006846D6
:101D9000FFF718FF0B208DF801006846FFF712FFD0
:101DA00002A800F037FB4FF416500C4C029002A929
:101DB000204600F021FC04A800F0AEFB04A9204658
:101DC00000F032FB0121204600F0F0FD01F05AFB4B
:101DD00003A001F041FB06B010BD000000800940E7
:101DE00052533438352068617320696E69746564B4
:101DF000206E6F770A0D000001280BD002280DD04D
:101E000003280ED0042810D1092212215FF001000E
:101E100000F00CB8022219210320F9E707221D2146
:101E200001E008221E210020F2E7704770B50D4640
:101E30001446FEF7C3FDE84004F5E024C00794F81B
:101E4000280002D0012804D170BD012801D0012052
:101E500070BD002070BD000010B5FEF7EDFB064A16
:101E60001178491C1170FEF7EBFBFFF783FABDE810
:101E70001040FEF797BE00005600001070B52D48C8
:101E80002021C0F8A011D0F8A011890604D500BF08
:101E9000D0F8A0114906FBD500F180000323C0F85B
:101EA00084304FF00005C0F82851C0F82C514FF095
:101EB0000104C0F88C40204941604FF0AA01C16084
:101EC0004FF05502C2600460C160C260A0F18000A2
:101ED000D0F888607601FBD540F8803FC160C260D1
:101EE000A0F18000D0F8886016F0407FFAD000F1B1
:101EF000A00023264660C160C2600460C160C26069
:101F0000A0F1A000D0F8A8406405FBD540F8A03FA0
:101F1000C160C260A0F1A000D0F8A81011F4407F09
:101F2000FAD00649C0F8C410C0F8C85143F23A01CB
:101F3000016070BD00C00F4063000500DE8728040B
:101F400010B54FF040240021204600F04FF8012842
:101F500003D105490868401C08602046BDE81040D0
:101F6000002100F003B800002400001070B5054601
:101F70000C46B0F1402F0CD00F48854209D00F48D5
:101F8000854206D00E48854203D0DD210DA001F028
:101F9000DFF96CB1012C0BD0022C09D0032C07D037
:101FA000042C05D0052C03D0DE2106A001F0D0F9C9
:101FB0000120A040286070BD008000400000094062
:101FC000004009402E2E5C4E58504C69627261727E
:101FD0006965735C736F757263655C6C70633137D0
:101FE00078785F74696D65722E63000070B5054680
:101FF0000C46B0F1402F0CD01248854209D012484F
:10200000854206D01148854203D0A62110A001F0D8
:102010009FF96CB1012C0BD0022C09D0032C07D0F6
:10202000042C05D0052C03D0A72109A001F090F9BC
:1020300028680121A140084010F0FF0000D00120D5
:1020400070BD0000008000400000094000400940D1
:102050002E2E5C4E58504C69627261726965735CD9
:10206000736F757263655C6C7063313778785F7419
:10207000696D65722E63000010B50A4C204600F0B1
:1020800053FA00F00E00062807D0042801D00C28CF
:1020900006D1BDE8104000F091BB204600F078FA70
:1020A00010BD000000C00040F8B5FEF76FFD1D4EEA
:1020B000304600F039FA00F00E040220FEF7B6FCBC
:1020C000062C04D0042C09D00C2C07D021E030467B
:1020D00000F05EFA10F09E0F20D0FEE7124F134D75
:1020E00001231A466946304600F08CFB88B12878F7
:1020F0009DF800103954401CC2B22A702D29EFD12E
:1021000001230949304600F0DDFB0520FEF78EFC77
:10211000E6E7022C02D10420FEF788FCBDE8F84077
:10212000FEF740BD00800940DC00001020000010D8
:1021300008B500218DF8001001231A46694600F009
:1021400061FB9DF8000008BD13B501231A4601A9E3
:1021500000F0B8FB1CBD70B506460A22B1FBF2F0D8
:10216000B0FBF2F302FB101402FB13056420B1FB79
:10217000F0F0B0FBF2F102FB11003030C1B230469A
:10218000FFF7E2FF3035E9B23046FFF7DDFF3034CC
:10219000E1B23046BDE87040FFF7D6BF2DE9F0410F
:1021A00080460A20B1FBF0F2B2FBF0F300FB121400
:1021B00000FB13256422B1FBF2F2B2FBF0F300FB4B
:1021C00013264FF47A72B1FBF2F2B2FBF0F300FB8C
:1021D000132742F21072B1FBF2F1B1FBF0F200FBF7
:1021E00012103030C1B24046FFF7AEFF3037F9B2BF
:1021F0004046FFF7A9FF3036F1B24046FFF7A4FF93
:102200003035E9B24046FFF79FFF3034E1B2404637
:10221000BDE8F041FFF798BF2DE9F34F0A20B1FB6D
:10222000F0F2B2FBF0F300FB121481B000FB1322BA
:1022300000926422B1FBF2F2B2FBF0F300FB132B2D
:102240004FF47A72B1FBF2F2B2FBF0F300FB13250C
:1022500042F21072B1FBF2F2B2FBF0F300FB132674
:102260002E4AB1FBF2F2B2FBF0F300FB132A2C4A28
:10227000B1FBF2F2B2FBF0F300FB1329294AB1FBE8
:10228000F2F2B2FBF0F300FB1328274AB1FBF2F2A3
:10229000B2FBF0F300FB1327244AB1FBF2F1B1FBD0
:1022A000F0F200FB12103030C1B20198FFF74CFF82
:1022B0003037F9B20198FFF747FF08F13002D1B289
:1022C0000198FFF741FF09F13002D1B20198FFF701
:1022D0003BFF0AF13002D1B20198FFF735FF3036EB
:1022E000F1B20198FFF730FF3035E9B20198FFF7FE
:1022F0002BFF0BF13002D1B20198FFF725FF009AB6
:1023000001983032D1B2FFF71FFF0198303403B08B
:10231000E1B2BDE8F04FFFF717BF0000A086010053
:1023200040420F008096980000E1F50500CA9A3BF4
:1023300070B50D4606460CA100F054F80124A0002B
:1023400025FA00F000F00F02092A01D9373200E027
:102350003032D1B23046FFF7F7FE2000A4F101047D
:10236000E4B2ECD170BD00003078000070B50D46CD
:1023700006460CA100F036F80324A00025FA00F070
:1023800000F00F02092A01D9373200E03032D1B211
:102390003046FFF7D9FE2000A4F10104E4B2ECD1ED
:1023A00070BD00003078000070B50D4606460CA1E7
:1023B00000F018F80724A00025FA00F000F00F0242
:1023C000092A01D9373200E03032D1B23046FFF766
:1023D000BBFE2000A4F10104E4B2ECD170BD00000A
:1023E0003078000070B505460C4603E0641C2846B2
:1023F000FFF7AAFE21780029F8D170BD10B5044678
:10240000FFF7F0FF2046BDE8104001A1FFF7EABF4B
:102410000A0D00004FF416510160032141710021A3
:10242000017181717047000070B505462C482D4E32
:102430000C4685420CD0B5420AD02B48854207D0C5
:102440002A48854204D040F2373129A000F080FFAD
:10245000E07850B1012808D0022806D0032804D023
:102460004FF44E7122A000F073FFA07830B1012824
:1024700004D040F239311EA000F06AFF207830B15C
:10248000012804D040F23A3119A000F061FF6078D1
:1024900030B1012804D040F23B3115A000F058FFC4
:1024A000E078012220B1012806D0022806D0C122FE
:1024B0006078012804D005E04122F9E78122F7E79E
:1024C00042F004022078012801D142F00202A078F3
:1024D000012801D142F0080202F0CF00287270BD3D
:1024E00000C00040000001400080094000C00940D9
:1024F0002E2E5C4E58504C69627261726965735C35
:10250000736F757263655C6C7063313778785F7573
:102510006172742E6300000000218170C17001217E
:10252000017041707047000010B504460A488442AB
:102530000DD00A4884420AD00948844207D009488D
:10254000844204D040F2113107A000F001FFA068DE
:1025500040F2CF31084010BD00C0004000000140F3
:102560000080094000C009402E2E5C4E58504C6936
:10257000627261726965735C736F757263655C6CBE
:102580007063313778785F756172742E6300000074
:1025900010B504460A490B488C420CD084420CD03A
:1025A0000948844207D00948844204D040F2FA2105
:1025B00007A000F0CDFE207D10BD007D10BD000005
:1025C00000C00040000001400080094000C00940F8
:1025D0002E2E5C4E58504C69627261726965735C54
:1025E000736F757263655C6C7063313778785F7593
:1025F0006172742E630000002DE9F05FDFF88481C2
:10260000DFF88491614F624E04460D46404509D083
:10261000B44207D04C4505D0BC4203D0C9215DA0CF
:1026200000F096FE687948B1012807D0022805D04D
:10263000032803D0CA2157A000F08AFEA87928B148
:10264000012803D0CB2153A000F082FE287958B195
:10265000012809D0022807D0032805D0042803D078
:10266000CC214CA000F074FE40464FF0800B4FF0A0
:10267000070A4FF00008844204D101210820FEF728
:102680003FF906E0B44204D101211020FEF738F9E9
:1026900006E04C4504D101210806FEF731F906E0B9
:1026A000BC4204D101214806FEF72AF91FE0B442DA
:1026B0001DD184F808A0404684F8088000E0217805
:1026C000217DC907FBD184F830B0217D8906FCD576
:1026D00084F83000606020732062207484F84C001D
:1026E00084F8540084F85000207E207D18E084F89F
:1026F00008A0404684F8088000E02178217DC907C1
:10270000FBD184F830B0217D8906FCD584F83000F7
:10271000606020732062217DBC4201D184F82400D6
:102720002046296800F0B6FE207B697900F0C000E1
:1027300029B1012910D0022911D040F003002979D4
:10274000C1B140F00800012914D002290AD00329A0
:102750000BD004290ED10BE040F00100EFE740F070
:102760000200ECE740F0100004E040F0200001E03F
:1027700040F03000A979012901D140F00400207314
:10278000BDE8F09F00C000400080094000C0094043
:10279000000001402E2E5C4E58504C6962726172EE
:1027A0006965735C736F757263655C6C70633137F8
:1027B00078785F756172742E63000000F8B50F4C75
:1027C00000250F4F2570661C0023012269463846FC
:1027D00000F018F800280FD020789DF80010315430
:1027E000401CC0B220700328EED10448257003219C
:1027F000401CFDF771FFE7E7F8BD00004400001042
:10280000000001402DE9F04107460D461446012B1A
:102810004FF000061ED14FF0FF380EE0404601E0B9
:10282000D0B1401E397DC907FAD0A8B1384600F0B2
:1028300017F8641E05F8010B761C002CEED10BE096
:10284000387DC00708D0384600F00AF8761C05F835
:10285000010B641E002CF3D13046BDE8F08100006E
:1028600010B5044609490A488C420CD084420AD06B
:102870000848844207D00848844204D04FF4F971D4
:1028800006A000F065FD207810BD000000C00040EB
:10289000000001400080094000C009402E2E5C4E1F
:1028A00058504C69627261726965735C736F7572BE
:1028B00063655C6C7063313778785F756172742E14
:1028C000630000002DE9F04780460D461446012BB9
:1028D0004FF0000633D14FF0FF3919E0484602E0CF
:1028E00060B3A0F1010098F814108906F8D528B358
:1028F00010270AE015F8011B404600F025F87F1E5E
:10290000A4F1010406F1010602D0002CF2D118E076
:10291000002CE3D115E000BF98F81400800610D514
:10292000102709E015F8011B404600F00DF8641E61
:102930007F1E06F1010602D0002CF3D101E0002C2D
:10294000EAD13046BDE8F08770B50D460446094926
:1029500009488C420CD084420AD00848844207D0EF
:102960000748844204D040F2D91106A000F0F0FCE0
:10297000257070BD00C0004000000140008009408B
:1029800000C009402E2E5C4E58504C696272617234
:102990006965735C736F757263655C6C7063313706
:1029A00078785F756172742E6300000070B504461C
:1029B0001148124D0E4684420CD0AC420AD0104849
:1029C000844207D00F48844204D040F2EA310EA07E
:1029D00000F0BEFC36B1012E09D040F2EB310AA066
:1029E00000F0B6FC14F8301F0020207070BD14F801
:1029F000300F40F08000F8E700C0004000000140C8
:102A00000080094000C009402E2E5C4E58504C6991
:102A1000627261726965735C736F757263655C6C19
:102A20007063313778785F756172742E63000000CF
:102A300037B508461146054B6A4600F0C5F804460E
:102A40006946002000F06DFC20463EBD23330000A7
:102A500002E008C8121F08C1002AFAD17047704767
:102A6000002001E001C1121F002AFBD170470000C5
:102A70002DE9FF5FDDE90210020DDDF838B00143FA
:102A80000FD10F9801244BA3012807D000980F9A6B
:102A9000C0E90031C0E90242BDE8FF9F6FEA0B01C7
:102AA000F4E7A2F2FF3244F61050424315140F9897
:102AB00001280ED0A5EB0B00401C4FF000043E4E49
:102AC000DFF8F890B0F1000AA04605DACAF1000775
:102AD00017E0CBF10000F0E7074612E0F80707D057
:102AE0002246334640464946FDF789FC80468946E2
:102AF0002246334610461946FDF781FC04460E4631
:102B00007F10002FEAD1DDE90201BAF1000F424641
:102B10004B4602DAFDF773FC01E0FDF7E0FC0446EA
:102B20000E460022264BFDF761FD03D84FF0FF3023
:102B3000014607E00022234B20463146FDF713FBF8
:102B4000FDF73CFD102409E0002C0ADB0A220023DB
:102B5000FDF7D8FA019B30321A55641E50EA010283
:102B6000F2D1641C019AC4F1110314440F9A012A92
:102B700009D00122084301D15B450FDD4FF000026F
:102B800005F101050DE0084303D1A3EB0B056D1E14
:102B900009E000204FF0110B0F9088E701DA0022C6
:102BA0006D1E002A83D000980F99C0E90231C0E958
:102BB000004571E730000000000024400000F03FB5
:102BC0000000F0430000E03F2DE9FF4F95B00646BE
:102BD0009A468946002521E2252801D01799A6E0CA
:102BE0000024F9492746761C4FF0010803943278F7
:102BF000203A08FA02F0084202D00443761CF6E7B5
:102C000030782A2811D06FF02F023078A0F13001EF
:102C1000092916D8039944F0020401EB810102EB63
:102C200041010844761C0390EFE759F8041B039117
:102C3000002903DA484244F40054039044F00204AB
:102C4000761C30782E2816D116F8010F44F00404B3
:102C50002A280DD06FF02F013078A0F13002092A18
:102C600009D807EB870201EB42028718761CF3E7CD
:102C700059F8047B761C30786C280FD006DC4C2881
:102C800017D068280DD06A2814D104E0742810D019
:102C90007A280FD10DE044F400140AE044F48014C3
:102CA00001E044F440147178814202D1761C04F5AD
:102CB0008014761C96F800C0BCF1660F10D01ADCA8
:102CC000BCF1580F70D00CDCBCF1000F6DD0BCF122
:102CD000450FF3D0BCF1460FF0D0BCF1470F24D123
:102CE000A4E1BCF1630F40D0BCF1640F74D0BCF11F
:102CF000650F1AD19AE1BCF1700F6ED00CDCBCF1FB
:102D0000670FEDD0BCF1690F75D0BCF16E0F12D01A
:102D1000BCF16F0F09D1B3E0BCF1730F2FD0BCF140
:102D2000750F76D0BCF1780F74D017996046524673
:102D300090476D1C70E1C4F30250022809D00328AB
:102D40000DD0D9F8001004280DD00D6009F1040948
:102D500062E1D9F80010EA17C1E90052F6E7D9F8A4
:102D600000100D80F2E70D70F0E759F8041B8DF8A4
:102D7000001000208DF80100EB46012003E059F817
:102D800004BB4FF0FF3061074FF0000102D40FE0A9
:102D900008F101018846B94211DA8045F8DB1BF8D9
:102DA00008100029F4D10AE060E03BE108F10101DC
:102DB00088468142FADB1BF808100029F6D10398F7
:102DC0005346A0EB080721463846179A00F091FABF
:102DD000284400EB080506E00DE049E01BF8010B74
:102DE000524617999047B8F10108F7D25346214649
:102DF0003846179A0DE10A21C4F302524FF0000B36
:102E00000091022A07D059F8040BC117032A0AD0EF
:102E10000BE024E025E009F1070020F00702F2E8CA
:102E20000201914605E000B2C117042A01D140B267
:102E3000C117002906DA0A460021404261EB02016F
:102E40002D2202E0220504D52B228DF80420012238
:102E500003E0E20701D02022F7E7904654E00A2180
:102E600000E010214FF0000B00910DE0102008E071
:102E700010204FF0000B44F004040827009003E0FA
:102E800008204FF0000B0090C4F30252022A05D034
:102E900059F8040B0021032A08D009E009F10700C2
:102EA00020F00702F2E80201914605E080B200211D
:102EB000042A01D1C0B200214FF00008220723D517
:102EC000BCF1700F28D0009B83F0100353EA0B0372
:102ED00009D150EA010206D030228DF804208DF885
:102EE00005C002229046009B83F0080353EA0B03BF
:102EF0000AD150EA010201D1620705D530228DF8CE
:102F000004204FF001087F1EBCF1580F09D02FA2FA
:102F10000C920CAA029211E040228DF804200122AA
:102F2000E0E72FA2F4E75B46009AFDF7EBF80C9B75
:102F30009B5C029AA2F101020292137050EA010214
:102F4000F1D1029804A9A1EB000000F1200B600769
:102F500002D524F4803400E001275F4502DDA7EBB1
:102F60000B0000E0002000EB0B01009003984144AF
:102F7000A0EB01000390E00306D453462146179AC4
:102F8000039800F0B6F90544002706E001A8524670
:102F9000C05D179990476D1C7F1C4745F6DBE00329
:102FA0000CD553462146179A039800F0A2F9054420
:102FB00004E030205246179990476D1C0099481E36
:102FC00000900029F5DC1EE0092801003031323381
:102FD0003435363738396162636465660000000055
:102FE000303132333435363738394142434445463F
:102FF000000000000298029952460078491C029194
:10300000179990476D1CBBF10001ABF1010BF1DC8E
:1030100050E100F05BF9054406F101063078002824
:103020007FF4DAAD19B02846BDE8F08F600700D410
:10303000062709F1070020F00701F1E80220894680
:1030400000F00043190001D09DA109E0210501D540
:103050009CA105E0E10701D09BA101E0AFF2840152
:1030600020F000431391BCF1650F11D009DCBCF1D5
:10307000450F0DD0BCF1460F20D0BCF1470F3ED11B
:103080003EE0BCF1660F19D0BCF1670F7CD137E090
:103090000021112F01DB112000E0781CCDE9000197
:1030A00004A90CA8FFF7E4FCDDE90D010C9A4FF030
:1030B000000B07F10108109200914CE04FF0004026
:1030C0000097CDE9018004A90CA8FFF7D1FCDDE948
:1030D0000E20DDE90C314FF0000B9046109300926A
:1030E00018B907F1010001EB0008B7EB080003D4A1
:1030F000C0F1FF3B07F10108A8EB0700019043E096
:10310000012F00DA01270021112F01DD112000E03D
:103110003846CDE9000104A90CA8FFF7A9FCDDE9B8
:103120000D010C9A00914FF0000BB8461092210748
:103130000CD40099414500DA8846B8F1010F05DD4D
:10314000109AA8F10101515C302908D0B84202DA86
:1031500010F1040F06DA0121CDE9011014E0A8F105
:103160000101E9E7002803DC8344A8EB000102E049
:10317000411C414500DD8846A0EB0B0000F1010039
:1031800001904FF000400290200705D4019840457F
:1031900002DB4FF0FF30019000208DF84B000298C9
:1031A0000DF14B07B0F1004F26D002200C902B20E0
:1031B0000D90029800280CDA404202902D200D90CC
:1031C00007E00A210298FDF774F83031029007F801
:1031D000011D0C99481E0C900029F2DC0298002871
:1031E000EFD1A7F101010D980870307800F02000B0
:1031F00040F0450007F8020D11A8A0EB070000F110
:10320000070002901398007800B1012000EB08013C
:10321000019801EBE071029801440398A0EB0100D2
:10322000A0F101000390E00306D453462146179A0B
:10323000039800F05EF805441398007820B15246D8
:103240001799904705F10105E00322D55346214621
:10325000179A039800F04DF805441AE0BBF1000FEF
:1032600007DB0098584504DD1098179910F80B00FB
:1032700001E0179930205246904701986D1C401E7E
:103280000BF1010B019004D12E2052461799904763
:103290006D1CB8F10001A8F10108DFDC05E017F8AA
:1032A000010B5246179990476D1C0299481E0290D7
:1032B0000029F4DC53462146179A0398A9E600003A
:1032C0002D0000002B000000200000002DE9F0413F
:1032D0000446002517461E46880405D406E03946F4
:1032E0002020B04705F10105641EF8D52846BDE849
:1032F000F0812DE9F0410446002590461E46C803A2
:1033000001D5302700E02027880405D506E0414696
:103310003846B04705F10105641EF8D52846BDE8DA
:10332000F0810A68531C0B601070704710B5FDF7F0
:10333000B1FB0523044A00210448FDF787FDFDF792
:103340006BFD002010BD000094C30720490700005A
:103350007047000010B5FEF701F80D4908600D48F0
:103360004FF47A710068B0FBF1F0B0F1807F0DD2BC
:1033700020F07F414FF0E020491E4161064AF821CC
:103380001170002181610721016110BDFEE700007D
:10339000B00000104C00001023ED00E01FB501202C
:1033A0008DF8020000208DF8030002218DF8011035
:1033B0008DF804008DF800006846FEF703FC03203A
:1033C0008DF801006846FEF7FDFB02A8FFF722F822
:1033D0004FF461400F4C029002A92046FFF70CF910
:1033E00001212046FFF7E2FA0C480B4901600C4925
:1033F00041600C4981600C4981610C49C1610C49F3
:1034000001620C49C1600C4901610C4941610C49E0
:1034100041621FBD00C00040E5230000B400001061
:10342000FD23000049210000312300006D2300002E
:10343000A9230000572100009D210000192200004F
:10344000312100000248016C21F4E0510164704711
:1034500000C00920FFF76ABF0FB4074810B503AAE0
:103460000299FFF7E5FA064A0349044812689047B3
:1034700010BC5DF814FB00001812001000C00040E2
:10348000B40000100248016841F08061016070479B
:1034900000C009202DE9FF5F0446002003904D483D
:1034A0008A46844201D106200DE04B48844201D176
:1034B000082008E04948844201D1302003E0484810
:1034C000844203D13220FDF731FA81464FF0FF30BC
:1034D000029000200190804683460125009000263E
:1034E00027E04FEA0973A3FB050C0021090741EA15
:1034F000191101FB05C1002703FB0711AA1902FBE3
:103500000AF23B46FCF7FEFDB0F1004F01D9404204
:10351000491C4A1EB2F5803F0AD2029A904207D255
:103520000290CDE9005602984FF0000B884638B162
:10353000761CAE42D5D3029810B16D1C0F2DCED99A
:1035400058EA0B0002D104B0BDE8F09F00994FEAA1
:103550001910019A48431144A1FB0827002606FBD5
:10356000087501FB0B533146FCF7CCFD824502D9AF
:10357000AAEB000001E0A0EB0A0064214843B0FB85
:10358000FAF0032801D30398DDE713488442207B37
:1035900040F0800020734FEA182040EA0B60207151
:1035A00084F80080207B00F07F00207300984FEAB1
:1035B000001006D10199C0B201F00F010843A062CA
:1035C00005E0019901F00F01084384F8280001206B
:1035D0000390B8E700C000400000014000800940AF
:1035E00000C00940010000000200000004000000CB
:1035F0000800000010000000200000004000000053
:103600008000000000000100020001000300010032
:10361000020001000400010002000100030001009B
:10362000020001000500010002000100030001008A
:10363000020001000400010002000100030001007B
:103640000200010006000100020001000300010069
:10365000020001000400010002000100030001005B
:10366000020001000500010002000100030001004A
:10367000020001000400010002000100030001003B
:103680000200010007000100020001000300010028
:10369000020001000400010002000100030001001B
:1036A000020001000500010002000100030001000A
:1036B00002000100040001000200010003000100FB
:1036C00002000100060001000200010003000100E9
:1036D00002000100040001000200010003000100DB
:1036E00002000100050001000200010003000100CA
:1036F00002000100040001000200010003000100BB
:10370000020001003437000000000010DC0000005F
:10371000502A000010380000DC00001044150000A2
:10372000602A00001038000000C00720A029000017
:10373000602A0000000000000000000000000000FF
:103740000000000000000000000000000000000079
:103750000000000000000000000000000000000069
:103760000000000000000000000000000000000059
:103770000000000000000000000000000000000049
:1037800000E1F5050000000000000000000000005E
:103790000000000000000000000000000000000029
:1037A0000000000000000000000000000000000019
:1037B0000000000000000000000000000000000009
:1037C00000000000000000000000000000000000F9
:1037D00000000000000000000000000000000000E9
:1037E00000000000000000000000000000000000D9
:1037F00000000000000000000000000000000000C9
:1038000000000000000000000000000000000000B8
:04000005000000CD2A
:00000001FF
